{
  "contractName": "Airdrop",
  "abi": [
    {
      "inputs": [
        {
          "internalType": "address",
          "name": "_admin",
          "type": "address"
        },
        {
          "internalType": "address",
          "name": "_tokenToAirdrop",
          "type": "address"
        },
        {
          "internalType": "uint256",
          "name": "_deadlineDuration",
          "type": "uint256"
        }
      ],
      "stateMutability": "nonpayable",
      "type": "constructor"
    },
    {
      "anonymous": false,
      "inputs": [
        {
          "indexed": false,
          "internalType": "address",
          "name": "receipient",
          "type": "address"
        },
        {
          "indexed": false,
          "internalType": "uint256",
          "name": "amount",
          "type": "uint256"
        },
        {
          "indexed": false,
          "internalType": "uint256",
          "name": "date",
          "type": "uint256"
        }
      ],
      "name": "AirdropTransaction",
      "type": "event"
    },
    {
      "inputs": [],
      "name": "admin",
      "outputs": [
        {
          "internalType": "address",
          "name": "",
          "type": "address"
        }
      ],
      "stateMutability": "view",
      "type": "function",
      "constant": true
    },
    {
      "inputs": [
        {
          "internalType": "address",
          "name": "",
          "type": "address"
        }
      ],
      "name": "airDroppedIndex",
      "outputs": [
        {
          "internalType": "bool",
          "name": "",
          "type": "bool"
        }
      ],
      "stateMutability": "view",
      "type": "function",
      "constant": true
    },
    {
      "inputs": [],
      "name": "currentAirdroppedAmount",
      "outputs": [
        {
          "internalType": "uint256",
          "name": "",
          "type": "uint256"
        }
      ],
      "stateMutability": "view",
      "type": "function",
      "constant": true
    },
    {
      "inputs": [],
      "name": "deadline",
      "outputs": [
        {
          "internalType": "uint256",
          "name": "",
          "type": "uint256"
        }
      ],
      "stateMutability": "view",
      "type": "function",
      "constant": true
    },
    {
      "inputs": [],
      "name": "maxAirdropAmount",
      "outputs": [
        {
          "internalType": "uint256",
          "name": "",
          "type": "uint256"
        }
      ],
      "stateMutability": "view",
      "type": "function",
      "constant": true
    },
    {
      "inputs": [],
      "name": "token",
      "outputs": [
        {
          "internalType": "contract IERC20",
          "name": "",
          "type": "address"
        }
      ],
      "stateMutability": "view",
      "type": "function",
      "constant": true
    },
    {
      "inputs": [
        {
          "internalType": "address",
          "name": "_newAdmin",
          "type": "address"
        }
      ],
      "name": "updateAdmin",
      "outputs": [],
      "stateMutability": "nonpayable",
      "type": "function"
    },
    {
      "inputs": [
        {
          "internalType": "address",
          "name": "_receipient",
          "type": "address"
        },
        {
          "internalType": "uint256",
          "name": "_amount",
          "type": "uint256"
        },
        {
          "internalType": "bytes",
          "name": "_signature",
          "type": "bytes"
        }
      ],
      "name": "claimAirdropTokens",
      "outputs": [],
      "stateMutability": "nonpayable",
      "type": "function"
    },
    {
      "inputs": [],
      "name": "getAmountLeftToAirdrop",
      "outputs": [
        {
          "internalType": "uint256",
          "name": "",
          "type": "uint256"
        }
      ],
      "stateMutability": "view",
      "type": "function",
      "constant": true
    }
  ],
  "bytecode": "0x608060405269152d02c7e14af68000006003553480156200001f57600080fd5b50604051620012bc380380620012bc833981810160405281019062000045919062000111565b826000806101000a81548173ffffffffffffffffffffffffffffffffffffffff021916908373ffffffffffffffffffffffffffffffffffffffff16021790555081600160006101000a81548173ffffffffffffffffffffffffffffffffffffffff021916908373ffffffffffffffffffffffffffffffffffffffff1602179055508042620000d491906200016d565b60048190555050505062000270565b600081519050620000f4816200023c565b92915050565b6000815190506200010b8162000256565b92915050565b6000806000606084860312156200012d576200012c62000237565b5b60006200013d86828701620000e3565b93505060206200015086828701620000e3565b92505060406200016386828701620000fa565b9150509250925092565b60006200017a82620001fe565b91506200018783620001fe565b9250827fffffffffffffffffffffffffffffffffffffffffffffffffffffffffffffffff03821115620001bf57620001be62000208565b5b828201905092915050565b6000620001d782620001de565b9050919050565b600073ffffffffffffffffffffffffffffffffffffffff82169050919050565b6000819050919050565b7f4e487b7100000000000000000000000000000000000000000000000000000000600052601160045260246000fd5b600080fd5b6200024781620001ca565b81146200025357600080fd5b50565b6200026181620001fe565b81146200026d57600080fd5b50565b61103c80620002806000396000f3fe608060405234801561001057600080fd5b50600436106100935760003560e01c80637632eb99116100665780637632eb991461010e578063d981bfbc1461013e578063e2f273bd1461015c578063f851a44014610178578063fc0c546a1461019657610093565b806309a657221461009857806323efeb12146100b657806329dcb0cf146100d45780636c0aaf4b146100f2575b600080fd5b6100a06101b4565b6040516100ad9190610cd1565b60405180910390f35b6100be6101cb565b6040516100cb9190610cd1565b60405180910390f35b6100dc6101d1565b6040516100e99190610cd1565b60405180910390f35b61010c60048036038101906101079190610894565b6101d7565b005b61012860048036038101906101239190610867565b610573565b6040516101359190610b96565b60405180910390f35b610146610593565b6040516101539190610cd1565b60405180910390f35b61017660048036038101906101719190610867565b610599565b005b61018061066a565b60405161018d9190610b1b565b60405180910390f35b61019e61068e565b6040516101ab9190610bf6565b60405180910390f35b60006002546003546101c69190610d5e565b905090565b60035481565b60045481565b600454421061021b576040517f08c379a000000000000000000000000000000000000000000000000000000000815260040161021290610c51565b60405180910390fd5b600061024e8585604051602001610233929190610ac9565b604051602081830303815290604052805190602001206106b4565b905060008054906101000a900473ffffffffffffffffffffffffffffffffffffffff1673ffffffffffffffffffffffffffffffffffffffff166102d58285858080601f016020809104026020016040519081016040528093929190818152602001838380828437600081840152601f19601f820116905080830192505050505050506106e4565b73ffffffffffffffffffffffffffffffffffffffff161461032b576040517f08c379a000000000000000000000000000000000000000000000000000000000815260040161032290610cb1565b60405180910390fd5b60001515600560008773ffffffffffffffffffffffffffffffffffffffff1673ffffffffffffffffffffffffffffffffffffffff16815260200190815260200160002060009054906101000a900460ff161515146103be576040517f08c379a00000000000000000000000000000000000000000000000000000000081526004016103b590610c71565b60405180910390fd5b600354846002546103cf9190610d08565b1115610410576040517f08c379a000000000000000000000000000000000000000000000000000000000815260040161040790610c11565b60405180910390fd5b6001600560008773ffffffffffffffffffffffffffffffffffffffff1673ffffffffffffffffffffffffffffffffffffffff16815260200190815260200160002060006101000a81548160ff021916908315150217905550836002600082825461047a9190610d08565b92505081905550600160009054906101000a900473ffffffffffffffffffffffffffffffffffffffff1673ffffffffffffffffffffffffffffffffffffffff1663a9059cbb86866040518363ffffffff1660e01b81526004016104de929190610b36565b602060405180830381600087803b1580156104f857600080fd5b505af115801561050c573d6000803e3d6000fd5b505050506040513d601f19601f820116820180604052508101906105309190610908565b507f6fe9e755dd56592e704c63f885048884872976ba89b46df8ecc0d51fafa0594785854260405161056493929190610b5f565b60405180910390a15050505050565b60056020528060005260406000206000915054906101000a900460ff1681565b60025481565b60008054906101000a900473ffffffffffffffffffffffffffffffffffffffff1673ffffffffffffffffffffffffffffffffffffffff163373ffffffffffffffffffffffffffffffffffffffff1614610627576040517f08c379a000000000000000000000000000000000000000000000000000000000815260040161061e90610c91565b60405180910390fd5b806000806101000a81548173ffffffffffffffffffffffffffffffffffffffff021916908373ffffffffffffffffffffffffffffffffffffffff16021790555050565b60008054906101000a900473ffffffffffffffffffffffffffffffffffffffff1681565b600160009054906101000a900473ffffffffffffffffffffffffffffffffffffffff1681565b6000816040516020016106c79190610af5565b604051602081830303815290604052805190602001209050919050565b6000806000806106f385610759565b809350819450829550505050600186848484604051600081526020016040526040516107229493929190610bb1565b6020604051602081039080840390855afa158015610744573d6000803e3d6000fd5b50505060206040510351935050505092915050565b600080600060418451146107a2576040517f08c379a000000000000000000000000000000000000000000000000000000000815260040161079990610c31565b60405180910390fd5b60008060006020870151915060408701519050606087015160001a92508282829550955095505050509193909250565b6000813590506107e181610fc1565b92915050565b6000815190506107f681610fd8565b92915050565b60008083601f84011261081257610811610e81565b5b8235905067ffffffffffffffff81111561082f5761082e610e7c565b5b60208301915083600182028301111561084b5761084a610e86565b5b9250929050565b60008135905061086181610fef565b92915050565b60006020828403121561087d5761087c610e90565b5b600061088b848285016107d2565b91505092915050565b600080600080606085870312156108ae576108ad610e90565b5b60006108bc878288016107d2565b94505060206108cd87828801610852565b935050604085013567ffffffffffffffff8111156108ee576108ed610e8b565b5b6108fa878288016107fc565b925092505092959194509250565b60006020828403121561091e5761091d610e90565b5b600061092c848285016107e7565b91505092915050565b61093e81610d92565b82525050565b61095561095082610d92565b610e15565b82525050565b61096481610da4565b82525050565b61097381610db0565b82525050565b61098a61098582610db0565b610e27565b82525050565b61099981610df1565b82525050565b60006109ac601383610cec565b91506109b782610ea2565b602082019050919050565b60006109cf601183610cec565b91506109da82610ecb565b602082019050919050565b60006109f2601c83610cfd565b91506109fd82610ef4565b601c82019050919050565b6000610a15601883610cec565b9150610a2082610f1d565b602082019050919050565b6000610a38601883610cec565b9150610a4382610f46565b602082019050919050565b6000610a5b600983610cec565b9150610a6682610f6f565b602082019050919050565b6000610a7e600f83610cec565b9150610a8982610f98565b602082019050919050565b610a9d81610dda565b82525050565b610ab4610aaf82610dda565b610e43565b82525050565b610ac381610de4565b82525050565b6000610ad58285610944565b601482019150610ae58284610aa3565b6020820191508190509392505050565b6000610b00826109e5565b9150610b0c8284610979565b60208201915081905092915050565b6000602082019050610b306000830184610935565b92915050565b6000604082019050610b4b6000830185610935565b610b586020830184610a94565b9392505050565b6000606082019050610b746000830186610935565b610b816020830185610a94565b610b8e6040830184610a94565b949350505050565b6000602082019050610bab600083018461095b565b92915050565b6000608082019050610bc6600083018761096a565b610bd36020830186610aba565b610be0604083018561096a565b610bed606083018461096a565b95945050505050565b6000602082019050610c0b6000830184610990565b92915050565b60006020820190508181036000830152610c2a8161099f565b9050919050565b60006020820190508181036000830152610c4a816109c2565b9050919050565b60006020820190508181036000830152610c6a81610a08565b9050919050565b60006020820190508181036000830152610c8a81610a2b565b9050919050565b60006020820190508181036000830152610caa81610a4e565b9050919050565b60006020820190508181036000830152610cca81610a71565b9050919050565b6000602082019050610ce66000830184610a94565b92915050565b600082825260208201905092915050565b600081905092915050565b6000610d1382610dda565b9150610d1e83610dda565b9250827fffffffffffffffffffffffffffffffffffffffffffffffffffffffffffffffff03821115610d5357610d52610e4d565b5b828201905092915050565b6000610d6982610dda565b9150610d7483610dda565b925082821015610d8757610d86610e4d565b5b828203905092915050565b6000610d9d82610dba565b9050919050565b60008115159050919050565b6000819050919050565b600073ffffffffffffffffffffffffffffffffffffffff82169050919050565b6000819050919050565b600060ff82169050919050565b6000610dfc82610e03565b9050919050565b6000610e0e82610dba565b9050919050565b6000610e2082610e31565b9050919050565b6000819050919050565b6000610e3c82610e95565b9050919050565b6000819050919050565b7f4e487b7100000000000000000000000000000000000000000000000000000000600052601160045260246000fd5b600080fd5b600080fd5b600080fd5b600080fd5b600080fd5b60008160601b9050919050565b7f696e73756666696369656e7420746f6b656e7300000000000000000000000000600082015250565b7f696e76616c6964207369676e6174757265000000000000000000000000000000600082015250565b7f19457468657265756d205369676e6564204d6573736167653a0a333200000000600082015250565b7f41697264726f7020636f6e747261637420657870697265640000000000000000600082015250565b7f72656365697665642041697264726f7020616c72656164790000000000000000600082015250565b7f6e6f742061646d696e0000000000000000000000000000000000000000000000600082015250565b7f77726f6e67207369676e61747572650000000000000000000000000000000000600082015250565b610fca81610d92565b8114610fd557600080fd5b50565b610fe181610da4565b8114610fec57600080fd5b50565b610ff881610dda565b811461100357600080fd5b5056fea2646970667358221220c8efa1e38ced8d4ae2fab85001287404d8a5d03125fc8ec92b363af90ab47c9364736f6c63430008060033",
  "immutableReferences": {},
  "source": "// SPDX-License-Identifier: MIT\r\npragma solidity 0.8.6;\r\n\r\nimport \"@openzeppelin/contracts/token/ERC20/IERC20.sol\";\r\n\r\ncontract Airdrop {\r\n    // Need Admin (Owner of token ) to approve the receipient via a backend on Next.js\r\n    address public admin;\r\n    IERC20 public token;\r\n    uint256 public currentAirdroppedAmount;\r\n    uint256 public maxAirdropAmount = 100000 * 10**18;\r\n    uint256 public deadline;\r\n\r\n    // Mappings:\r\n    mapping(address => bool) public airDroppedIndex;\r\n\r\n    // Modifiers\r\n\r\n    modifier onlyAdmin() {\r\n        require(msg.sender == admin, \"not admin\");\r\n        _;\r\n    }\r\n\r\n    modifier validateDeadline() {\r\n        require(block.timestamp < deadline, \"Airdrop contract expired\");\r\n        _;\r\n    }\r\n\r\n    // Events:\r\n    event AirdropTransaction(address receipient, uint256 amount, uint256 date);\r\n\r\n    constructor(\r\n        address _admin,\r\n        address _tokenToAirdrop,\r\n        uint256 _deadlineDuration\r\n    ) {\r\n        admin = _admin;\r\n        token = IERC20(_tokenToAirdrop);\r\n        deadline = block.timestamp + _deadlineDuration;\r\n    }\r\n\r\n    // Admin Function:\r\n    function updateAdmin(address _newAdmin) external onlyAdmin {\r\n        admin = _newAdmin;\r\n    }\r\n\r\n    function claimAirdropTokens(\r\n        address _receipient,\r\n        uint256 _amount,\r\n        bytes calldata _signature\r\n    ) external validateDeadline {\r\n        // pre-fixing an encoded message from the receipient with the amount:\r\n        bytes32 message = prefixHash(\r\n            keccak256(abi.encodePacked(_receipient, _amount))\r\n        );\r\n\r\n        // Check if the Signer of the message belongs to the admin:\r\n        require(\r\n            recoverSignerAddress(message, _signature) == admin,\r\n            \"wrong signature\"\r\n        );\r\n\r\n        // Check if the receipient has ALREADY RECEIVED: (cannot receive twice)\r\n        require(\r\n            airDroppedIndex[_receipient] == false,\r\n            \"received Airdrop already\"\r\n        );\r\n\r\n        require(\r\n            currentAirdroppedAmount + _amount <= maxAirdropAmount,\r\n            \"insufficient tokens\"\r\n        );\r\n        // Once all checks pass, set state first before transacting:\r\n        airDroppedIndex[_receipient] = true;\r\n        currentAirdroppedAmount += _amount;\r\n\r\n        // Complete transaction:\r\n        token.transfer(_receipient, _amount);\r\n\r\n        emit AirdropTransaction(_receipient, _amount, block.timestamp);\r\n    }\r\n\r\n    // Hashing & Decoding Functions:\r\n\r\n    // Pre-fixing the encoded message:\r\n    // @dev: function set to 'internal' to limit inheritance from within the contract function:\r\n    // Recreates message signed on the client\r\n    function prefixHash(bytes32 _hash) internal pure returns (bytes32) {\r\n        return\r\n            keccak256(\r\n                abi.encodePacked(\"\\x19Ethereum Signed Message:\\n32\", _hash)\r\n            );\r\n    }\r\n\r\n    // @dev: Function to retrieve ADDRESS of signer:\r\n    // requires v ,r, s of the account RETRIEVED from signature:\r\n    function recoverSignerAddress(bytes32 _message, bytes memory _signature)\r\n        internal\r\n        pure\r\n        returns (address)\r\n    {\r\n        // Instantiating the v ,r, s variables:\r\n        uint8 v;\r\n        bytes32 r;\r\n        bytes32 s;\r\n\r\n        // Retrieiving from signature\r\n        (v, r, s) = splitSignature(_signature);\r\n\r\n        // Returns an address from the message tallied with the signature.\r\n        return ecrecover(_message, v, r, s);\r\n    }\r\n\r\n    // @dev: splitSignature to retrieve individual v (uint 8), r (bytes32) & s (bytes32):\r\n    function splitSignature(bytes memory _signature)\r\n        internal\r\n        pure\r\n        returns (\r\n            uint8,\r\n            bytes32,\r\n            bytes32\r\n        )\r\n    {\r\n        // Check if signature is of valid length first:\r\n        require(_signature.length == 65, \"invalid signature\");\r\n\r\n        // Instantiating variables:\r\n        uint8 v;\r\n        bytes32 r;\r\n        bytes32 s;\r\n\r\n        // Using assembly to Decode:\r\n        // Sequence of order for individual hashed components:\r\n        // r (first 32 bytes) -> s (second 32 bytes) -> v (final bytes AKA first bytes of the next 32 bytes - unit8)\r\n        assembly {\r\n            r := mload(add(_signature, 32))\r\n            s := mload(add(_signature, 64))\r\n            v := byte(0, mload(add(_signature, 96)))\r\n        }\r\n\r\n        return (v, r, s);\r\n    }\r\n\r\n    // Helper Functions:\r\n\r\n    function getAmountLeftToAirdrop() public view returns (uint256) {\r\n        return maxAirdropAmount - currentAirdroppedAmount;\r\n    }\r\n}\r\n",
  "sourcePath": "C:/Users/victo/solidityGH/AirdropProject/Ethereum-TZY-Airdrop-Project/contracts/Airdrop.sol",
  "compiler": {
    "name": "solc",
    "version": "0.8.6+commit.11564f7e.Emscripten.clang"
  },
  "schemaVersion": "3.4.1",
  "updatedAt": "2021-07-26T13:40:52.355Z",
  "networkType": "ethereum",
  "devdoc": {
    "kind": "dev",
    "methods": {},
    "version": 1
  },
  "userdoc": {
    "kind": "user",
    "methods": {},
    "version": 1
  }
}