{
  "contractName": "Airdrop",
  "abi": [
    {
      "inputs": [
        {
          "internalType": "address",
          "name": "_admin",
          "type": "address"
        },
        {
          "internalType": "address",
          "name": "_tokenToAirdrop",
          "type": "address"
        },
        {
          "internalType": "uint256",
          "name": "_deadlineDuration",
          "type": "uint256"
        }
      ],
      "stateMutability": "nonpayable",
      "type": "constructor"
    },
    {
      "anonymous": false,
      "inputs": [
        {
          "indexed": false,
          "internalType": "address",
          "name": "receipient",
          "type": "address"
        },
        {
          "indexed": false,
          "internalType": "uint256",
          "name": "amount",
          "type": "uint256"
        },
        {
          "indexed": false,
          "internalType": "uint256",
          "name": "date",
          "type": "uint256"
        }
      ],
      "name": "AirdropTransaction",
      "type": "event"
    },
    {
      "inputs": [],
      "name": "admin",
      "outputs": [
        {
          "internalType": "address",
          "name": "",
          "type": "address"
        }
      ],
      "stateMutability": "view",
      "type": "function"
    },
    {
      "inputs": [
        {
          "internalType": "address",
          "name": "",
          "type": "address"
        }
      ],
      "name": "airDroppedIndex",
      "outputs": [
        {
          "internalType": "bool",
          "name": "",
          "type": "bool"
        }
      ],
      "stateMutability": "view",
      "type": "function"
    },
    {
      "inputs": [],
      "name": "currentAirdroppedAmount",
      "outputs": [
        {
          "internalType": "uint256",
          "name": "",
          "type": "uint256"
        }
      ],
      "stateMutability": "view",
      "type": "function"
    },
    {
      "inputs": [],
      "name": "deadline",
      "outputs": [
        {
          "internalType": "uint256",
          "name": "",
          "type": "uint256"
        }
      ],
      "stateMutability": "view",
      "type": "function"
    },
    {
      "inputs": [],
      "name": "maxAirdropAmount",
      "outputs": [
        {
          "internalType": "uint256",
          "name": "",
          "type": "uint256"
        }
      ],
      "stateMutability": "view",
      "type": "function"
    },
    {
      "inputs": [],
      "name": "token",
      "outputs": [
        {
          "internalType": "contract IERC20",
          "name": "",
          "type": "address"
        }
      ],
      "stateMutability": "view",
      "type": "function"
    },
    {
      "inputs": [
        {
          "internalType": "address",
          "name": "_newAdmin",
          "type": "address"
        }
      ],
      "name": "updateAdmin",
      "outputs": [],
      "stateMutability": "nonpayable",
      "type": "function"
    },
    {
      "inputs": [
        {
          "internalType": "address",
          "name": "_receipient",
          "type": "address"
        },
        {
          "internalType": "uint256",
          "name": "_amount",
          "type": "uint256"
        },
        {
          "internalType": "bytes",
          "name": "_signature",
          "type": "bytes"
        }
      ],
      "name": "claimAirDropTokens",
      "outputs": [],
      "stateMutability": "nonpayable",
      "type": "function"
    },
    {
      "inputs": [],
      "name": "getAmountLeftToAirdrop",
      "outputs": [
        {
          "internalType": "uint256",
          "name": "",
          "type": "uint256"
        }
      ],
      "stateMutability": "view",
      "type": "function"
    }
  ],
  "bytecode": "0x608060405269152d02c7e14af68000006003553480156200001f57600080fd5b50604051620012b4380380620012b4833981810160405281019062000045919062000111565b826000806101000a81548173ffffffffffffffffffffffffffffffffffffffff021916908373ffffffffffffffffffffffffffffffffffffffff16021790555081600160006101000a81548173ffffffffffffffffffffffffffffffffffffffff021916908373ffffffffffffffffffffffffffffffffffffffff1602179055508042620000d491906200016d565b60048190555050505062000270565b600081519050620000f4816200023c565b92915050565b6000815190506200010b8162000256565b92915050565b6000806000606084860312156200012d576200012c62000237565b5b60006200013d86828701620000e3565b93505060206200015086828701620000e3565b92505060406200016386828701620000fa565b9150509250925092565b60006200017a82620001fe565b91506200018783620001fe565b9250827fffffffffffffffffffffffffffffffffffffffffffffffffffffffffffffffff03821115620001bf57620001be62000208565b5b828201905092915050565b6000620001d782620001de565b9050919050565b600073ffffffffffffffffffffffffffffffffffffffff82169050919050565b6000819050919050565b7f4e487b7100000000000000000000000000000000000000000000000000000000600052601160045260246000fd5b600080fd5b6200024781620001ca565b81146200025357600080fd5b50565b6200026181620001fe565b81146200026d57600080fd5b50565b61103480620002806000396000f3fe608060405234801561001057600080fd5b50600436106100935760003560e01c80637632eb99116100665780637632eb991461010e578063d981bfbc1461013e578063e2f273bd1461015c578063f851a44014610178578063fc0c546a1461019657610093565b806309a657221461009857806323efeb12146100b657806329dcb0cf146100d45780634294e874146100f2575b600080fd5b6100a06101b4565b6040516100ad9190610cc9565b60405180910390f35b6100be6101cb565b6040516100cb9190610cc9565b60405180910390f35b6100dc6101d1565b6040516100e99190610cc9565b60405180910390f35b61010c6004803603810190610107919061088c565b6101d7565b005b6101286004803603810190610123919061085f565b61056b565b6040516101359190610b8e565b60405180910390f35b61014661058b565b6040516101539190610cc9565b60405180910390f35b6101766004803603810190610171919061085f565b610591565b005b610180610662565b60405161018d9190610b13565b60405180910390f35b61019e610686565b6040516101ab9190610bee565b60405180910390f35b60006002546003546101c69190610d56565b905090565b60035481565b60045481565b600454421061021b576040517f08c379a000000000000000000000000000000000000000000000000000000000815260040161021290610c49565b60405180910390fd5b600061024e8585604051602001610233929190610ac1565b604051602081830303815290604052805190602001206106ac565b905060008054906101000a900473ffffffffffffffffffffffffffffffffffffffff1673ffffffffffffffffffffffffffffffffffffffff166102d58285858080601f016020809104026020016040519081016040528093929190818152602001838380828437600081840152601f19601f820116905080830192505050505050506106dc565b73ffffffffffffffffffffffffffffffffffffffff161461032b576040517f08c379a000000000000000000000000000000000000000000000000000000000815260040161032290610ca9565b60405180910390fd5b60001515600560008773ffffffffffffffffffffffffffffffffffffffff1673ffffffffffffffffffffffffffffffffffffffff16815260200190815260200160002060009054906101000a900460ff161515146103be576040517f08c379a00000000000000000000000000000000000000000000000000000000081526004016103b590610c69565b60405180910390fd5b600354846002546103cf9190610d00565b1115610410576040517f08c379a000000000000000000000000000000000000000000000000000000000815260040161040790610c09565b60405180910390fd5b60011515600560008773ffffffffffffffffffffffffffffffffffffffff1673ffffffffffffffffffffffffffffffffffffffff16815260200190815260200160002060009054906101000a9050505083600260008282546104729190610d00565b92505081905550600160009054906101000a900473ffffffffffffffffffffffffffffffffffffffff1673ffffffffffffffffffffffffffffffffffffffff1663a9059cbb86866040518363ffffffff1660e01b81526004016104d6929190610b2e565b602060405180830381600087803b1580156104f057600080fd5b505af1158015610504573d6000803e3d6000fd5b505050506040513d601f19601f820116820180604052508101906105289190610900565b507f6fe9e755dd56592e704c63f885048884872976ba89b46df8ecc0d51fafa0594785854260405161055c93929190610b57565b60405180910390a15050505050565b60056020528060005260406000206000915054906101000a900460ff1681565b60025481565b60008054906101000a900473ffffffffffffffffffffffffffffffffffffffff1673ffffffffffffffffffffffffffffffffffffffff163373ffffffffffffffffffffffffffffffffffffffff161461061f576040517f08c379a000000000000000000000000000000000000000000000000000000000815260040161061690610c89565b60405180910390fd5b806000806101000a81548173ffffffffffffffffffffffffffffffffffffffff021916908373ffffffffffffffffffffffffffffffffffffffff16021790555050565b60008054906101000a900473ffffffffffffffffffffffffffffffffffffffff1681565b600160009054906101000a900473ffffffffffffffffffffffffffffffffffffffff1681565b6000816040516020016106bf9190610aed565b604051602081830303815290604052805190602001209050919050565b6000806000806106eb85610751565b8093508194508295505050506001868484846040516000815260200160405260405161071a9493929190610ba9565b6020604051602081039080840390855afa15801561073c573d6000803e3d6000fd5b50505060206040510351935050505092915050565b6000806000604184511461079a576040517f08c379a000000000000000000000000000000000000000000000000000000000815260040161079190610c29565b60405180910390fd5b60008060006020870151915060408701519050606087015160001a92508282829550955095505050509193909250565b6000813590506107d981610fb9565b92915050565b6000815190506107ee81610fd0565b92915050565b60008083601f84011261080a57610809610e79565b5b8235905067ffffffffffffffff81111561082757610826610e74565b5b60208301915083600182028301111561084357610842610e7e565b5b9250929050565b60008135905061085981610fe7565b92915050565b60006020828403121561087557610874610e88565b5b6000610883848285016107ca565b91505092915050565b600080600080606085870312156108a6576108a5610e88565b5b60006108b4878288016107ca565b94505060206108c58782880161084a565b935050604085013567ffffffffffffffff8111156108e6576108e5610e83565b5b6108f2878288016107f4565b925092505092959194509250565b60006020828403121561091657610915610e88565b5b6000610924848285016107df565b91505092915050565b61093681610d8a565b82525050565b61094d61094882610d8a565b610e0d565b82525050565b61095c81610d9c565b82525050565b61096b81610da8565b82525050565b61098261097d82610da8565b610e1f565b82525050565b61099181610de9565b82525050565b60006109a4601383610ce4565b91506109af82610e9a565b602082019050919050565b60006109c7601183610ce4565b91506109d282610ec3565b602082019050919050565b60006109ea601c83610cf5565b91506109f582610eec565b601c82019050919050565b6000610a0d601883610ce4565b9150610a1882610f15565b602082019050919050565b6000610a30601883610ce4565b9150610a3b82610f3e565b602082019050919050565b6000610a53600983610ce4565b9150610a5e82610f67565b602082019050919050565b6000610a76600f83610ce4565b9150610a8182610f90565b602082019050919050565b610a9581610dd2565b82525050565b610aac610aa782610dd2565b610e3b565b82525050565b610abb81610ddc565b82525050565b6000610acd828561093c565b601482019150610add8284610a9b565b6020820191508190509392505050565b6000610af8826109dd565b9150610b048284610971565b60208201915081905092915050565b6000602082019050610b28600083018461092d565b92915050565b6000604082019050610b43600083018561092d565b610b506020830184610a8c565b9392505050565b6000606082019050610b6c600083018661092d565b610b796020830185610a8c565b610b866040830184610a8c565b949350505050565b6000602082019050610ba36000830184610953565b92915050565b6000608082019050610bbe6000830187610962565b610bcb6020830186610ab2565b610bd86040830185610962565b610be56060830184610962565b95945050505050565b6000602082019050610c036000830184610988565b92915050565b60006020820190508181036000830152610c2281610997565b9050919050565b60006020820190508181036000830152610c42816109ba565b9050919050565b60006020820190508181036000830152610c6281610a00565b9050919050565b60006020820190508181036000830152610c8281610a23565b9050919050565b60006020820190508181036000830152610ca281610a46565b9050919050565b60006020820190508181036000830152610cc281610a69565b9050919050565b6000602082019050610cde6000830184610a8c565b92915050565b600082825260208201905092915050565b600081905092915050565b6000610d0b82610dd2565b9150610d1683610dd2565b9250827fffffffffffffffffffffffffffffffffffffffffffffffffffffffffffffffff03821115610d4b57610d4a610e45565b5b828201905092915050565b6000610d6182610dd2565b9150610d6c83610dd2565b925082821015610d7f57610d7e610e45565b5b828203905092915050565b6000610d9582610db2565b9050919050565b60008115159050919050565b6000819050919050565b600073ffffffffffffffffffffffffffffffffffffffff82169050919050565b6000819050919050565b600060ff82169050919050565b6000610df482610dfb565b9050919050565b6000610e0682610db2565b9050919050565b6000610e1882610e29565b9050919050565b6000819050919050565b6000610e3482610e8d565b9050919050565b6000819050919050565b7f4e487b7100000000000000000000000000000000000000000000000000000000600052601160045260246000fd5b600080fd5b600080fd5b600080fd5b600080fd5b600080fd5b60008160601b9050919050565b7f696e73756666696369656e7420746f6b656e7300000000000000000000000000600082015250565b7f696e76616c6964207369676e6174757265000000000000000000000000000000600082015250565b7f19457468657265756d205369676e6564204d6573736167653a0a333200000000600082015250565b7f41697264726f7020636f6e747261637420657870697265640000000000000000600082015250565b7f72656365697665642041697264726f7020616c72656164790000000000000000600082015250565b7f6e6f742061646d696e0000000000000000000000000000000000000000000000600082015250565b7f77726f6e67207369676e61747572650000000000000000000000000000000000600082015250565b610fc281610d8a565b8114610fcd57600080fd5b50565b610fd981610d9c565b8114610fe457600080fd5b50565b610ff081610dd2565b8114610ffb57600080fd5b5056fea2646970667358221220ec98fe23fef3988203e8b195412a63258ad8de5e1a69d3ae4aa36f02f2e48e2464736f6c63430008060033",
  "immutableReferences": {},
  "source": "// SPDX-License-Identifier: MIT\r\npragma solidity 0.8.6;\r\n\r\nimport \"@openzeppelin/contracts/token/ERC20/IERC20.sol\";\r\n\r\ncontract Airdrop {\r\n    // Need Admin (Owner of token ) to approve the receipient via a backend on Next.js\r\n    address public admin;\r\n    IERC20 public token;\r\n    uint256 public currentAirdroppedAmount;\r\n    uint256 public maxAirdropAmount = 100000 * 10**18;\r\n    uint256 public deadline;\r\n\r\n    // Mappings:\r\n    mapping(address => bool) public airDroppedIndex;\r\n\r\n    // Modifiers\r\n\r\n    modifier onlyAdmin() {\r\n        require(msg.sender == admin, \"not admin\");\r\n        _;\r\n    }\r\n\r\n    modifier validateDeadline() {\r\n        require(block.timestamp < deadline, \"Airdrop contract expired\");\r\n        _;\r\n    }\r\n\r\n    // Events:\r\n    event AirdropTransaction(address receipient, uint256 amount, uint256 date);\r\n\r\n    constructor(\r\n        address _admin,\r\n        address _tokenToAirdrop,\r\n        uint256 _deadlineDuration\r\n    ) {\r\n        admin = _admin;\r\n        token = IERC20(_tokenToAirdrop);\r\n        deadline = block.timestamp + _deadlineDuration;\r\n    }\r\n\r\n    // Admin Function:\r\n    function updateAdmin(address _newAdmin) external onlyAdmin {\r\n        admin = _newAdmin;\r\n    }\r\n\r\n    function claimAirDropTokens(\r\n        address _receipient,\r\n        uint256 _amount,\r\n        bytes calldata _signature\r\n    ) external validateDeadline {\r\n        // pre-fixing an encoded message from the receipient with the amount:\r\n        bytes32 message = prefixHash(\r\n            keccak256(abi.encodePacked(_receipient, _amount))\r\n        );\r\n\r\n        // Check if the Signer of the message belongs to the admin:\r\n        require(\r\n            recoverSignerAddress(message, _signature) == admin,\r\n            \"wrong signature\"\r\n        );\r\n\r\n        // Check if the receipient has ALREADY RECEIVED: (cannot receive twice)\r\n        require(\r\n            airDroppedIndex[_receipient] == false,\r\n            \"received Airdrop already\"\r\n        );\r\n\r\n        require(\r\n            currentAirdroppedAmount + _amount <= maxAirdropAmount,\r\n            \"insufficient tokens\"\r\n        );\r\n        // Once all checks pass, set state first before transacting:\r\n        airDroppedIndex[_receipient] == true;\r\n        currentAirdroppedAmount += _amount;\r\n\r\n        // Complete transaction:\r\n        token.transfer(_receipient, _amount);\r\n\r\n        emit AirdropTransaction(_receipient, _amount, block.timestamp);\r\n    }\r\n\r\n    // Hashing & Decoding Functions:\r\n\r\n    // Pre-fixing the encoded message:\r\n    // @dev: function set to 'internal' to limit inheritance from within the contract function:\r\n    function prefixHash(bytes32 _hash) internal pure returns (bytes32) {\r\n        return\r\n            keccak256(\r\n                abi.encodePacked(\"\\x19Ethereum Signed Message:\\n32\", _hash)\r\n            );\r\n    }\r\n\r\n    // @dev: Function to retrieve ADDRESS of signer:\r\n    // requires v ,r, s of the account RETRIEVED from signature:\r\n    function recoverSignerAddress(bytes32 _message, bytes memory _signature)\r\n        internal\r\n        pure\r\n        returns (address)\r\n    {\r\n        // Instantiating the v ,r, s variables:\r\n        uint8 v;\r\n        bytes32 r;\r\n        bytes32 s;\r\n\r\n        // Retrieiving from signature\r\n        (v, r, s) = splitSignature(_signature);\r\n\r\n        // Returns an address from the message tallied with the signature.\r\n        return ecrecover(_message, v, r, s);\r\n    }\r\n\r\n    // @dev: splitSignature to retrieve individual v (uint 8), r (bytes32) & s (bytes32):\r\n    function splitSignature(bytes memory _signature)\r\n        internal\r\n        pure\r\n        returns (\r\n            uint8,\r\n            bytes32,\r\n            bytes32\r\n        )\r\n    {\r\n        // Check if signature is of valid length first:\r\n        require(_signature.length == 65, \"invalid signature\");\r\n\r\n        // Instantiating variables:\r\n        uint8 v;\r\n        bytes32 r;\r\n        bytes32 s;\r\n\r\n        // Using assembly to Decode:\r\n        // Sequence of order for individual hashed components:\r\n        // r (first 32 bytes) -> s (second 32 bytes) -> v (final bytes AKA first bytes of the next 32 bytes - unit8)\r\n        assembly {\r\n            r := mload(add(_signature, 32))\r\n            s := mload(add(_signature, 64))\r\n            v := byte(0, mload(add(_signature, 96)))\r\n        }\r\n\r\n        return (v, r, s);\r\n    }\r\n\r\n    // Helper Functions:\r\n\r\n    function getAmountLeftToAirdrop() public view returns (uint256) {\r\n        return maxAirdropAmount - currentAirdroppedAmount;\r\n    }\r\n}\r\n",
  "sourcePath": "C:/Users/victo/solidityGH/AirdropProject/Ethereum-TZY-Airdrop-Project/contracts/Airdrop.sol",
  "compiler": {
    "name": "solc",
    "version": "0.8.6+commit.11564f7e.Emscripten.clang"
  },
  "schemaVersion": "3.4.1",
  "updatedAt": "2021-07-20T03:23:55.965Z",
  "devdoc": {
    "kind": "dev",
    "methods": {},
    "version": 1
  },
  "userdoc": {
    "kind": "user",
    "methods": {},
    "version": 1
  }
}